:100000000C947A010C94A2010C94A2010C94A2010C
:100010000C94A2010C94A2010C94A2010C94F1295D
:100020000C94A2010C94A2010C94A2010C94A201C4
:100030000C94A2010C94A2010C94A2010C94A201B4
:100040000C944F290C94A2010C94BF290C9499296B
:100050000C94A2010C94A2010C94A2010C94A20194
:100060000C94A2010C94A2012D20456E76696F3A82
:1000700020612063616461203330730A002D204CBD
:100080006569747572613A2061206361646120332F
:1000900073000A436F6E66696775726163616F3AD8
:1000A000005365727665723A20002049503A20006C
:1000B00045746865726E65742E2E2E004D41433A6C
:1000C0002041413A42423A43433A44443A45453A50
:1000D0003032000A3D3D3D204E4F44452D30322008
:1000E00076332E3120284E657750696E6729203D82
:1000F0003D3D0054494D454F5554202D20466F72CB
:100100006120646520616C63616E6365206F75209A
:1001100073656E736F7220646573636F6E6563746D
:1001200061646F00286D656469616E6120357829AE
:100130002000E29AA02054696D656F7574206F7578
:10014000206572726F00E29C932053756363657340
:100150007320636F6E6669726D61646F2100E29C4B
:100160009320485454502032787820726563656239
:1001700069646F2100290020636D20287365712058
:1001800000456E766961646F3A2000436F6E746556
:100190006E742D4C656E6774683A2000436F6E7400
:1001A000656E742D547970653A206170706C696366
:1001B0006174696F6E2F6A736F6E00486F73743A63
:1001C000203139322E3136382E302E313031005038
:1001D0004F5354202F6170692F6C6569747572617B
:1001E000732F72617720485454502F312E310020E4
:1001F0004F4B002046414C484F552032782100207B
:1002000046414C484F552100436F6E656374616EE3
:10021000646F2E2E2E00E29C9320456E76696164F9
:100220006F20636F6D207375636573736F210A00B0
:10023000E29C972046616C6861206E6F20656E7647
:10024000696F210020636D203C3C3C000A3E3E3E2D
:1002500020454E5649414E444F20000AE29C9720CB
:1002600053656D206461646F732076C3A16C69640B
:100270006F73207061726120656E766961720A0029
:100280004552524F0020636D00735D204C656E64D3
:100290006F2E2E2E20005B000000000800020100DF
:1002A0000003040700000000000000000000000040
:1002B000240027002A000000000023002600290057
:1002C00000000000250028002B000404040404049E
:1002D00004040202020202020303030303030102F5
:1002E00004081020408001020408102001020408C4
:1002F0001020612A11241FBECFEFD8E0DEBFCDBF92
:1003000012E0A0E0B1E0EAE0F8E602C005900D924C
:10031000A030B107D9F726E0A0E0B2E001C01D92FD
:10032000A736B207E1F711E0CAE7D1E004C0219790
:10033000FE010E94E331C937D107C9F70E945B2B48
:100340000C9403340C94000090E0FC01E252FD4F49
:10035000249186539D4FFC018491882399F090E06D
:10036000880F991FFC01E455FD4FA591B491FC0144
:10037000E054FD4F859194918FB7F894EC91E22B66
:10038000EC938FBF089590E0FC01E856FD4F249157
:10039000FC01E252FD4F349186539D4FFC01849144
:1003A0008823A1F0211118C0E82FF0E0EE0FFF1F05
:1003B000E054FD4FA591B4918FB7F894611107C037
:1003C0009C91E32FE095E923EC938FBF0895EC9186
:1003D000E32BEC938FBFFACF233029F160F0273065
:1003E000E1F02830A1F02430F9F6909180009F7D53
:1003F00090938000D9CF213031F02230A9F694B506
:100400009F7D94BDD1CF94B59F7794BDCDCF909172
:10041000B0009F7D9093B000C7CF9091B0009F77C0
:100420009093B000C1CF909180009F77909380000F
:10043000BBCF0F931F938B019C019FB7F894409102
:10044000F4025091F5026091F6027091F70286B5C0
:10045000A89B06C08F3F21F04F5F5F4F6F4F7F4FCC
:100460009FBF762F652F542F4427480F511D611DC4
:10047000711D440F551F661F771F440F551F661FC0
:10048000771F0115110521053105C9F1FFB7F89452
:100490008091F4029091F502A091F602B091F702DA
:1004A000E6B5A89B05C0EF3F19F00196A11DB11D4F
:1004B000FFBFBA2FA92F982F88278E0F911DA11D3E
:1004C000B11D880F991FAA1FBB1F880F991FAA1F54
:1004D000BB1F841B950BA60BB70B883E9340A10551
:1004E000B105A0F2015011092109310948515C4FB1
:1004F0006F4F7F4F011511052105310539F61F9109
:100500000F9108953FB7F8948091F4029091F5020D
:10051000A091F602B091F70226B5A89B05C02F3F27
:1005200019F00196A11DB11D3FBFBA2FA92F982F19
:100530008827BC01CD01620F711D811D911D660FC1
:10054000771F881F991F660F771F881F991F0895AF
:100550002FB7F8946091F0027091F1028091F2024D
:100560009091F3022FBF0895EF92FF920F931F9384
:10057000CF93DF93FB0164916623F1F07F018C013F
:10058000D0E0C0E007C02196FE01EE0DFF1D649192
:10059000662351F0D801ED91FC910190F081E02D9E
:1005A000C8010995892B79F7CE01DF91CF911F9171
:1005B0000F91FF90EF900895D0E0C0E0F5CFCF927B
:1005C000DF92EF92FF920F931F93CF93DF9341152A
:1005D000510509F16A018C017B01D0E0C0E004C043
:1005E0002196CC16DD0669F0D7016D917D01D80109
:1005F000ED91FC910190F081E02DC8010995892BC6
:1006000079F7CE01DF91CF911F910F91FF90EF907D
:10061000DF90CF900895D0E0C0E0F3CFFC01938D40
:10062000848D981720F4891B990B019708952FE367
:1006300030E0291B3109820F932F911D0895FC0191
:10064000918D828D981761F0A28DAE0FBF2FB11DD5
:100650005D968C91928D9F5F9F73928F90E008952D
:100660008FEF9FEF0895FC01918D828D981731F0E7
:10067000828DE80FF11D858D90E008958FEF9FEF3B
:100680000895FC01918D228D892F90E0805C9F4F11
:10069000821B91098F73992708958CE195E00E9440
:1006A000410321E0892B09F420E0822F089580E0A6
:1006B00090E0892B21F00E944D03811101C0089523
:1006C0000C940000FC01A48DA80FB92FB11DA35AF2
:1006D000BF4F2C91848D90E001968F739927848F62
:1006E000A689B7892C93A089B1898C918370806485
:1006F0008C93938D848D981308950288F389E02D4F
:1007000080818F7D80830895EF92FF920F931F93D6
:10071000CF93DF93EC0181E0888F9B8D8C8D9817B0
:1007200099F1062FEB8CF12C8FEFE81AF80A8FE382
:10073000E822FF241E2D03C00FB607FE1CC08C8DBF
:100740008117D1F3EB8DEC0FFD2FF11DE35AFF4F15
:1007500000839FB7F894EB8EEA89FB8980818062E1
:1007600080839FBF81E090E0DF91CF911F910F9137
:10077000FF90EF900895E889F989808185FFDFCFA8
:10078000CE010E946203DBCFE889F989808185FF71
:10079000C8CF9FB7F894EE89FF896083E889F9890B
:1007A00080818370806480839FBFDCCFCF93DF9391
:1007B000EC01888D8823B9F0EA89FB89A889B98979
:1007C000808185FD03C08C9186FD0DC00FB607FCAE
:1007D000F7CF808185FFF4CF8C9185FFF1CFCE01DB
:1007E0000E946203E9CFDF91CF910895882399F1A8
:1007F00090910404891781F1911104C030C0922FA7
:10080000222349F1292F30E0F901EE0FFF1FEE0FEF
:10081000FF1FE20FF31FE050FC4F24818213EFCF44
:1008200025E0929FF0011124E050FC4F90E0DC01A4
:10083000AA0FBB1FAA0FBB1FA80FB91FA050BC4F08
:1008400014968C911497848313961C921E9212977F
:1008500014961C9208950895E0E0F4E0E7CF08951F
:100860001F93CF93DF93182FC62FD42F60E08AE019
:100870000E94C301CF71C12BCEBD00000DB407FE95
:10088000FDCF8EB5DEBD00000DB407FEFDCF8EB5E9
:1008900061E08AE0DF91CF911F910C94C301CF9367
:1008A000DF93D82FD076909100019D17C9F0C82F03
:1008B00043E06FE180EA0E9430044C2F50E05595F0
:1008C0004795559547955595479555954795559510
:1008D000479543706FE180E80E943004D093000197
:1008E000DF91CF9108951F93CF93DF93C82F162FD9
:1008F000D72F0E944F04412F6C2F80E40E943004B8
:1009000061E06C0F4D2F80E4DF91CF911F910C942B
:100910003004CF93DF93D82FC62F60E08AE00E9487
:10092000C3018C2F8F718D2B8EBD00000DB407FE7F
:10093000FDCF8EB5C7FD0EC01EBC00000DB407FE76
:10094000FDCFCEB561E08AE00E94C3018C2FDF911C
:10095000CF9108951EBC00000DB407FEFDCF8EB5EB
:10096000EBCF1F93CF93DF93182FEB0184ED0E9401
:100970004F04412F64ED80E40E943004BE0186EDF7
:100980000E947304CFE0D0E008C06AE070E080E02D
:1009900090E00E941902219749F08AEE0E944F04CC
:1009A0006AEE80E00E94890480FDEFCFDF91CF9155
:1009B0001F910895CF93C62FBC0182E00E9473045B
:1009C00060E08AE00E94C3018AE78EBD00000DB49A
:1009D00007FEFDCF8EB5CEBD00000DB407FEFDCFE6
:1009E0008EB561E08AE0CF910C94C301CF93BC0136
:1009F00080E00E94730460E08AE00E94C3018AE301
:100A00008EBD00000DB407FEFDCF8EB51EBC0000EC
:100A10000DB407FEFDCFCEB561E08AE00E94C301B0
:100A20008C2FCF910895CF92DF92EF92FF920F9388
:100A30001F93CF93DF937C018B014130510509F463
:100A40003FC0EA01C60FD71F6E0181E0C81AD10866
:100A500080E10E947304B70184E10E9473040115D0
:100A6000184020F1B60182E10E94730440E16FE179
:100A700080EA0E94300440E26FE180E80E94300486
:100A800006C061E070E080E090E00E9419026FE132
:100A900080E00E94890485FDF4CFDF91CF911F9102
:100AA0000F91FF90EF90DF90CF900895C11488E0F0
:100AB000D806C0F26E0181E0C81A88E0D80AD2CF09
:100AC000CB010E94F604682FC701DF91CF911F91DF
:100AD0000F91FF90EF90DF90CF900C94DA048F92FB
:100AE0009F92BF92CF92DF92EF92FF920F931F934C
:100AF000CF93DF93EC0160910004709101044B01EE
:100B000081E0881A88EE980A7B0140E058E1E0E035
:100B1000F4E080E010E000E0B5E0BB2E17C0C217A3
:100B2000D30748F42417350730F48B9D8001112436
:100B300000501C4FA901992309F452C09B9DF0015C
:100B40001124E050FC4FE080F180892F94819401C2
:100B5000992371F0C92ED12C9601220F331F220F39
:100B6000331F2C0D3D1D20503C4FD9012D913C9140
:100B70002E193F090280F381E02D2E1B3F0B2C170D
:100B80003D0769F6B5E08B9F8001112400501C4F92
:100B9000E5E0F4E081E022813381232B09F065C098
:100BA000D8012D913C91119712964D915C9113971C
:100BB000240F351F31832083D383C28314969C91E5
:100BC0001497948314968C93DF91CF911F910F917A
:100BD000FF90EF90DF90CF90BF909F908F900895FF
:100BE00001151105A9F600E014E095E0B92E24C026
:100BF000C60ED71E292F30E09B9D80011124005086
:100C00001C4F7901EE0CFF1CEE0CFF1CE20EF31ED4
:100C1000F701E050FC4F7F0160817181C616D70655
:100C200041F042815381C6010E941305D701CD9244
:100C3000DC92F80160817181D80114969C9114971F
:100C40001296CD90DC909111D3CF809100049091B9
:100C50000104861B970B8C199D098150984E8C17A7
:100C60009D0708F095CF80E0AFCF35968F5F853335
:100C700009F091CF80E0A8CFEF92FF920F931F93DE
:100C80007B01A42FA80190E0AF3FE9F065E0A69FAB
:100C9000D0011124A050BC4F6D917C91620F731F45
:100CA000FC01EE0FFF1FEE0FFF1FE80FF91FE050D2
:100CB000FC4F808191818E0D9F1D1F910F91FF90A0
:100CC000EF900C94130560910B0570910C05620F69
:100CD000731F611528E0720718F37850E1CFCF92A7
:100CE000DF92EF92FF920F931F93CF93DF937B01DD
:100CF0006A01890190E0EC01CC0FDD1FCC0FDD1FF4
:100D0000C80FD91FC050DC4F688179816E0D7F1DDF
:100D100082E00E9473040A80DB81C02DCE19DF09B6
:100D20000C171D0708F4E80160E08AE00E94C30187
:100D30008AE78EBD00000DB407FEFDCF8EB520976B
:100D400071F0F60196012C0F3D1F81918EBD0000C0
:100D50000DB407FEFDCF8EB52E173F07B1F761E04A
:100D60008AE00E94C301CE01DF91CF911F910F91C4
:100D7000FF90EF90DF90CF900895EF92FF920F9346
:100D80001F93CF93DF937B018A018F3FE1F095E0C2
:100D9000899FE0011124C050DC4F688179816E0D7C
:100DA0007F1D80E00E9473048A819B818E199F09B8
:100DB0000817190708F4C801DF91CF911F910F910F
:100DC000FF90EF90089560910B0570910C056E0DEA
:100DD0007F1D611588E0780708F07850CBE0D5E0FA
:100DE000E0CF0F931F93CF93DF93EB0170E060E0B0
:100DF0000E94BD068C0160E08AE00E94C3018AE384
:100E00008EBD00000DB407FEFDCF8EB50115110596
:100E100069F09E01200F311F1EBC00000DB407FEBB
:100E2000FDCF8EB58993C217D307B1F761E08AE091
:100E30000E94C301C801DF91CF911F910F910895C6
:100E4000882399F090911105992379F08F3F81F0D3
:100E500090E0FC01EE0FFF1FEE0FFF1FE80FF91FE0
:100E6000E050FC4F82819381089590E080E00895E6
:100E700080910D0590910E050895DC011C96ED9171
:100E8000FC91309731F086819781982789279827A0
:100E9000089590E080E00895DB011C96ED91FC91AF
:100EA000309771F0328123815081418167E771E091
:100EB000FC017183608352834383348325830895C7
:100EC00027E731E0DC012D933C93FC011282138271
:100ED000148215820895CF93DF931F92CDB7DEB7AA
:100EE000DC01ED91FC91048CF58DE02D41E050E0AA
:100EF000BE016F5F7F4F09951816190634F489817A
:100F000090E00F90DF91CF9108958FEF9FEFF9CF91
:100F1000CF93DF93EC018A89811105C090E080E0D6
:100F2000DF91CF9108959A01AB016E857F850E9474
:100F30006F062E853F85280F391F3F872E87DF914B
:100F4000CF910895CF93DF931F92CDB7DEB769831A
:100F5000DC01ED91FC910280F381E02D41E050E055
:100F6000BE016F5F7F4F09950F90DF91CF9108957C
:100F7000DC01ED91FC91048CF58DE02D099480E06D
:100F8000089590E080E0089540918502842F90E0DC
:100F9000982F882740918602480F592F511DE5E868
:100FA000F2E0329682E0E839F80798F4208130E0E8
:100FB000322F22279181290F311D420F531F4217D3
:100FC000530778F74F5F5F4F329682E0E839F807B2
:100FD00068F3E859F24031F04115510579F48FEF8B
:100FE0009FEF08958091980290E0982F8827480FEE
:100FF000591F4817590780F74F5F5F4F942F852F70
:101000000895CF93DF93DC01EA012197C60FD71F24
:101010006C177D07E0F4FB01208130E0322F22279E
:101020009181290F311DA20FB31FA217B30708F436
:1010300011963296EC17FD0778F3CB0180959095C9
:101040008C0F9D1F8E7F0296680F791FCD01C617EA
:10105000D70719F0DF91CF910895288130E0322F22
:101060002227CD01820F931F8217930798F70196CD
:10107000DF91CF910895CF92DF92FF920F931F934C
:10108000CF93DF93C82F0091870210E0102F002725
:10109000409188024451550B040F151F48E050E061
:1010A00061E972E0C8018C0F911D0E94010878E08F
:1010B000C72ED12CE8E0FE2EC13141F06091A5028F
:1010C000669566956C73F62EC62ED12CA60169E93D
:1010D00072E00E940108EC01C016D10608F045C07C
:1010E000A8014C195D0980914E0263E270E081FF16
:1010F0004AC06F0D711D80914F020E94BD068C0188
:101100000150110960E08AE00E94C3018AE38EBDAC
:1011100000000DB407FEFDCF8EB501151105B1F12C
:1011200050E040E01EBC00000DB407FEFDCF2EB520
:1011300030E0322F22271EBC00000DB407FEFDCF89
:101140008EB5280F311DC20FD31FC217D30708F465
:1011500021964E5F5F4F4017510720F30417150784
:10116000A9F061E08AE00E94C3019C2F8D2FCD2B56
:1011700011F48FEF9FEFDF91CF911F910F91FF90AF
:10118000DF90CF90089562E270E0B3CF1EBC000004
:101190000DB407FEFDCF8EB590E0982F8827C80FBD
:1011A000D91FC817D907E8F62196DBCFCF93DF9375
:1011B000EC01AC81BD81EBEDF2E08A819B819183F2
:1011C0008083B383A283FA0184819581EFE6F2E004
:1011D000DA0112964D915C9151834083938382830F
:1011E000E9018C819D81E3E7F2E02A813B81318333
:1011F000208393838283FB0182819381A481B581C3
:101200008093200690932106A0932206B093230694
:10121000DF91CF910895EF92FF921F93CF93DF93C9
:10122000C0914E02C1FF20C010914F0220914C028C
:1012300030E047E752E061E070E0812F0E946F06E6
:10124000CD7FC0934E0280911105811128C0C0E06E
:10125000812F0E94F60310924F028C2FDF91CF91C5
:101260001F91FF90EF900895C0916702D09168029E
:10127000CE01089609F463C00E946F05182F809371
:101280004F02882309F465C09E0147E752E061E000
:1012900070E00E946F06809111058823C1F2812FB2
:1012A00090E0FC01EE0FFF1FEE0FFF1FE80FF91F8C
:1012B000E050FC4FC081D181E280F380EC0EFD1E36
:1012C00060E0CE010E94DA04BE0184E00E94730453
:1012D000B7016850710986E00E947304DAE084E087
:1012E000E81AF10840E86FE180E80E94300440E825
:1012F0006FE180EA0E9430044AE06CE180EA0E94DB
:10130000300448E06FE180E80E9430048CE10E94E4
:101310004F046CE180E00E948904C82F8A70B1F309
:1013200048E06FE180EA0E943004C1FF14C0C701A9
:101330000E94F60485FF8BCFD150A1F688CF109282
:101340004F02C0E08C2FDF91CF911F91FF90EF9063
:101350000895C0E082CFC1E07BCFCF93DF93EC0153
:1013600088810E94F603FE019E012C5F3F4F818120
:101370008193E217F307D9F71C82DF91CF9108958B
:101380000F931F93CF93DF93EC01E881F981008CD9
:10139000F18DE02D0995882379F00C851D85E801F4
:1013A0002296095F1F4F89910E94F603FE01319733
:1013B0001082C017D107B9F7DF91CF911F910F911C
:1013C00008950F931F93CF93DF931F92CDB7DEB78E
:1013D0008C01DC01ED91FC91008CF18DE02D0995E3
:1013E0008823B1F0D8011C96ED91FC91828188236D
:1013F00079F041E050E0BE016F5F7F4F0E94F1063F
:10140000898190E00F90DF91CF911F910F91089506
:101410008FEF9FEFF7CFCF93DF931F92CDB7DEB75C
:10142000DC01ED91FC910288F389E02D41E050E070
:10143000BE016F5F7F4F09951816190634F4898134
:1014400090E00F90DF91CF9108958FEF9FEFF9CF4C
:101450000F931F930E94A802609338067093390679
:1014600080933A0690933B061BC00E94A80200910D
:1014700038061091390620913A0630913B06601BE0
:10148000710B820B930B009134061091350620915D
:10149000360630913706601771078207930748F4C4
:1014A00080E396E00E940B0A97FDDFCF1F910F911A
:1014B00008958FEF9FEF1F910F9108956F927F9284
:1014C0008F929F92AF92BF92CF92DF92EF92FF9254
:1014D0000F931F93CF93DF938C016B017A01DC0193
:1014E000ED91FC91008CF18DE02D0995882309F494
:1014F00080C0D8011C96ED91FC918281882309F46B
:1015000057C0E7019EE1792E26C0CA19DB09C40144
:1015100002960E94AD09F801A485B585EC917E9EE6
:10152000F0011124E158FC4F818D84FF0CC011960D
:101530008C911197982F967031F4886011968C9346
:10154000F801A485B58512968C911297882309F429
:1015500040C0209759F1B7016C1B7D0B6C0D7D1DB0
:10156000AE010E94F1065C01F80184849584D401E7
:1015700012966C90862D0E942007A816B90629F2B3
:10158000712CF301EE0FFF1FEE0FFF1FE60DF71D8D
:10159000E050FC4F808191818A0D9B1D9183808357
:1015A000828193818A199B0993838283C70102C038
:1015B00090E080E0DF91CF911F910F91FF90EF902D
:1015C000DF90CF90BF90AF909F908F907F906F9063
:1015D000089511968C91119782FF07C011961C9265
:1015E000D8011D961C921E921C97C7018C1B9D0B47
:1015F000E1CF8FEF9FEFDECFEF92FF920F931F931C
:10160000CF93DF93EC01E881F981008CF18DE02D1F
:10161000099510E000E0882389F0EC84FD84E7015F
:10162000229687E0E80EF11C10E000E089910E940C
:101630002007080F191FCE15DF05C1F7C801DF917C
:10164000CF911F910F91FF90EF900895FC01248599
:1016500035852115310551F0FB014485558541152E
:10166000510521F081E02417350709F080E0089545
:10167000DC011C96ED91FC91309741F08281811143
:1016800003C081818170089581E0089580E008950C
:10169000DC01ED91FC91028CF38DE02DBBE0E63294
:1016A000FB0729F40E94260B91E0892708950995EC
:1016B00091E0892708950F931F93CF93DF93CDB7C0
:1016C000DEB7C455D1090FB6F894DEBF0FBECDBF4B
:1016D000FC0182819381A481B58165968CAF9DAF19
:1016E000AEAFBFAF659721E065962FAF6597659662
:1016F0004CAD5DAD6EAD7FAD659729964CAF5DAFDE
:101700006EAF7FAF29972F968CAF9DAFAEAFBFAFB7
:101710002F9723968CAF9DAFAEAFBFAF2397239685
:101720002FAF239723964CAD5DAD6EAD7FAD239764
:1017300049AF5AAF6BAF7CAF29962FAF2997299647
:101740004CAD5DAD6EAD7FAD29974BAB5CAB6DAB7A
:101750007EAB8DA79EA7AFA7B8AB2CAF49AD5AAD56
:101760006BAD7CAD4FA358A769A77AA72EAB4BA949
:101770005CA96DA97EA949A35AA36BA37CA38B8FF7
:101780009C8FAD8FBE8F0E94A80266507F4F8F4FF7
:101790009F4F609318057093190580931A059093D5
:1017A0001B0580911105882309F46AC110920C056C
:1017B00010920B0510920E0510920D05E0E0F4E07A
:1017C00089E091E0DF019C011D9221503040E1F75A
:1017D00081E098E090930104809300044FEF60E073
:1017E0008FEF0E94300462E070E080E090E00E94A1
:1017F000190262E370E080E090E00E94190210920A
:101800000A051092090500E110E009C00150110914
:1018100061F06AE070E080E090E00E9419026DE102
:1018200080E00E948904882389F370E060E088E00A
:101830000E94730470E060E08CE00E9473046FEF1C
:1018400077E08AE00E94730488E30E944F0441EB32
:1018500068E380E40E9430046FE370E388E20E9452
:10186000730469EF77EF80E30E9473046DE070E02A
:1018700080EC0E94730442E362EC80E80E94300432
:1018800062E17CE086EC0E94730484EC0E944F04C9
:1018900042E164EC80E40E9430046CED75E08AEC77
:1018A0000E9473041091010184EE0E944F04412FA5
:1018B00064EE80E40E9430041091020185EE0E94E3
:1018C0004F04412F65EE80E40E9430041091030123
:1018D00082EE0E944F04412F62EE80E40E943004A9
:1018E0001091040183EE0E944F04412F63EE80E4C7
:1018F0000E9430041091050180EE0E944F04412F98
:1019000060EE80E40E9430041091060181EE0E9496
:101910004F04412F61EE80E40E94300460E071E0EA
:1019200080E10E94B1048FE10E944F0440EC6BE122
:1019300080E80E94300444E06FE180E80E943004B7
:1019400066E774E084E10E94B10480910101809314
:101950001205809102018093130580910301809309
:1019600014058091040180931505809105018093F1
:10197000160580910601809317051092F8031092C6
:10198000F7031092FA031092F9031092FC031092DD
:10199000FB031092FE031092FD0310929803109225
:1019A000B6031092D4031092F20380E094E0909377
:1019B0007E0380937D03109256031092550310927C
:1019C00061031092600310926C0310926B031092EB
:1019D00077031092760384E08093FF03E8EFF2E050
:1019E00080E094E0DF01292F1D922A95E9F78F5FAF
:1019F000809350033B968830A9F787E791E09C8B52
:101A00008B8B2FEF2D8B2E8B2F8B188E9E878D8798
:101A100021E02AA74FA158A569A57AA54F87588B21
:101A2000698B7A8B98878F832CA349A15AA16BA1CC
:101A30007CA149875A876B877C879A8389838B8DA2
:101A40009C8DAD8DBE8D8B839C83AD83BE839E01AB
:101A50002D5E3F4FAE01435F5F4FBE01695F7F4F19
:101A6000CE0101960E94D608CC5ADF4F0FB6F894EB
:101A7000DEBF0FBECDBFDF91CF911F910F910895B3
:101A80008AE00E94A40161E08AE00E94C3011FB7BE
:101A9000F89480911005811122C0E4EDF2E0849168
:101AA000E8EEF2E09491E82FF0E0EE0FFF1FE4552E
:101AB000FD4FA591B491EC91E92351F18AE00E9488
:101AC000A4018CB580618CBD8CB580648CBD8DE02B
:101AD0000E94A4018BE00E94A401809110058F5FF9
:101AE000809310051FBF8CB58C7F8CBD8DB5816038
:101AF0008DBD82E70E944F0462E780E00E94890466
:101B00008F3F19F08093110551CE109211054ECEE2
:101B100061E08AE00E94C301D1CF0F931F93CF935E
:101B2000DF93EC0120917D0330917E03E09155031A
:101B3000F0915603A0916003B091610380916B0313
:101B400090916C0300917603109177032F5F3F4FC4
:101B500021154DE7340738F5522F432F4E175F07F5
:101B6000A9F34A175B0791F38417950779F30417D4
:101B7000150761F330937E0320937D03EF2BC1F0B3
:101B8000AB2B09F446C0892B09F451C0012B09F491
:101B900052C084E08093FF0390E080E0DF91CF911A
:101BA0001F910F91089540E150E020E030E1D6CF41
:101BB0001092FF0381E593E030E020E0ABE0A29FCC
:101BC000F001A39FF00D1124EF5AFC4F558344837D
:101BD000778366832097B9F0488159815183408388
:101BE0004A815B81538342834BE0429FF001439FD4
:101BF000F00D1124EF5AFC4F20E42087DF91CF91A4
:101C00001F910F91089544E0FC0111924A95E9F764
:101C1000EBCF81E021E030E08093FF03EBE0E29F37
:101C2000C001E39F900D11248F5A9C4FC7CF82E0D3
:101C300022E030E0F1CF83E023E030E0EDCF0F93FE
:101C40001F93CF93DF93EC018B01EC85FD853097DB
:101C500071F0102701271027158304832E96D28751
:101C6000C18781E0DF91CF911F910F91089570E0BE
:101C700060E090E080E00E948D0DFC019D878C87E4
:101C800080E0309731F7DF91CF911F910F91089548
:101C9000CF93DF93DC011C96ED91FC913097B1F06E
:101CA000EC0115821482128611861D861C86898994
:101CB0000E94F60388890E94F6038A890E94F6032F
:101CC0002E9686E0FE0111928A95E9F7DF91CF9179
:101CD00008958F929F92AF92BF92EF92FF920F93CF
:101CE0001F93CF93DF93CDB7DEB7A1970FB6F894CC
:101CF000DEBF0FBECDBF7C01FA01CB0119A222309D
:101D000008F42AE0822E912CB12CA12C8E010F5DBB
:101D10001F4F08C0605DD8016E938D01232B242BCB
:101D2000252B89F0BF01A50194010E94B231F90170
:101D3000CA016A307CF3695CD8016E938D01232B54
:101D4000242B252B79F790E080E0109789F0FD0196
:101D500001900020E9F73197AF014A1B5B0BD701D7
:101D6000ED91FC910280F381E02DB801C701099546
:101D7000A1960FB6F894DEBF0FBECDBFDF91CF9115
:101D80001F910F91FF90EF90BF90AF909F908F9019
:101D900008950F931F93CF93DF93EC01FB014481D0
:101DA000558160817181E881F9810280F381E02DA4
:101DB00009958C01E881F9810280F381E02D42E0F0
:101DC00050E069E771E0CE010995800F911FDF9126
:101DD000CF911F910F910895EF92FF920F931F9350
:101DE000CF93DF938C017B01FB016491D0E0C0E0D5
:101DF000611108C011C02196FE01EE0DFF1D649116
:101E0000662351F0D801ED91FC910190F081E02D15
:101E1000C8010995892B79F7D801ED91FC910280D1
:101E2000F381E02D42E050E069E771E0C8010995D7
:101E30008C0F9D1FDF91CF911F910F91FF90EF901D
:101E40000895CF92DF92EF92FF92CF93DF936C01D0
:101E5000990FEE08FF08F7FC0DC02AE0B701A601B4
:101E60008CE195E0DF91CF91FF90EF90DF90CF90E4
:101E70000C94690E6DE28CE195E00E948403EC0104
:101E800044275527BA014C195D096E097F092AE0DC
:101E90008CE195E00E94690E8C0F9D1FDF91CF9120
:101EA000FF90EF90DF90CF9008958F929F92AF9226
:101EB000BF92CF92DF92EF92FF920F931F93CF9337
:101EC000DF935C018B017C0182E0E80EF11C45018F
:101ED000A5E08A0E911CD12CC12CF70141917F0104
:101EE00050E070E060E02AE0C8010E94690EEC0159
:101EF000D801ED91FC910190F081E02D6EE2C801D6
:101F000009958C0F9D1FC80ED91EE814F90429F7F6
:101F1000F501458150E070E060E02AE0C8010E94D0
:101F2000690E8C0D9D1DDF91CF911F910F91FF9038
:101F3000EF90DF90CF90BF90AF909F908F900895DB
:101F4000CF93DF936CE175E00E94550FEC0142E006
:101F500050E069E771E08CE195E00E94DF028C0FB0
:101F60009D1FDF91CF910895CF93DF93FC012481D2
:101F70003581232B79F0C081D181FB016081718192
:101F8000CE010E94E933009729F08C1B9D0BDF9155
:101F9000CF9108958FEF9FEFFACFFC01808191815F
:101FA000009711F00C948C3208950F931F93CF93E8
:101FB000DF93EC0188819981009729F02A813B8188
:101FC0002617370788F48B016F5F7F4F0E94153308
:101FD000009781F0998388831B830A832C813D813C
:101FE000232B11F4FC01108281E0DF91CF911F912E
:101FF0000F91089580E0DF91CF911F910F91089587
:10200000EF92FF920F931F93CF93DF9361157105AA
:10201000B9F04115510541F481E0DF91CF911F9155
:102020000F91FF90EF9008958B017C01FC01C4811A
:10203000D581C40FD51FBE010E94D50F811108C0E4
:1020400080E0DF91CF911F910F91FF90EF90089565
:10205000F7012081318184819581B801820F931F1E
:102060000E94E233F701D583C48381E0D6CFFB0120
:1020700001900020E9F73197AF01461B570B0C94F4
:102080000010EF92FF920F931F93CF93DF93EC0119
:102090007B018A01BA010E94D50F811114C0888189
:1020A0009981009711F00E948C32198218821D824A
:1020B0001C821B821A82CE01DF91CF911F910F915A
:1020C000FF90EF9008951D830C83B701888199815B
:1020D0000E94E233CE01DF91CF911F910F91FF90CB
:1020E000EF900895FC0111821082138212821582F2
:1020F0001482FB0101900020E9F73197AF01461BE4
:10210000570B0C944110FC0127E731E021933193E8
:10211000DB012D913C91DC0113963C932E93129799
:10212000DB0112968D919C91938382830895EF92A7
:10213000FF920F931F93CF93DF93FC0110925003F4
:10214000C8EFD2E0DE0150E040E090E006C09F5FC3
:102150004F5F5F4F1B96983071F12D913C91119715
:1021600021153105A1F312960D911C9113970115BC
:10217000110569F3E080F1802E153F0541F72281BA
:1021800033810217130719F7909350032BE0249F14
:10219000C001259F900D1124DC01A450BD4F26E005
:1021A000FB0101900D922A95E1F788509D4FDC01CB
:1021B0001A961C922BC090E0AE0128813981232B06
:1021C00021F42A813B81232B41F19F5F2B9698308C
:1021D00099F710926602109265021092500348EF30
:1021E00052E080819181DA0111969C938E938281D5
:1021F000938113969C938E931297149686E0FB011D
:1022000001900D928A95E1F7FA011286DF91CF9144
:102210001F910F91FF90EF90089590935003E1CF9D
:10222000EF92FF920F931F93CF93DF9300D000D0D4
:1022300000D0CDB7DEB700919502109196020F3F06
:10224000100709F412C18091DB029091DC024091E9
:102250007302509174029A0120953095282B392BE6
:102260000217130709F412C18027912784239523AD
:10227000892B09F46FC000916F02109170021093C6
:102280006C0200936B02E0907102F0907202F09287
:102290006E02E0926D02E8EFF2E030E020E080E0D4
:1022A00007C08F5F2F5F3F4F3B96883009F46EC0A9
:1022B0004081518140175107A1F7428153814E154A
:1022C0005F0579F7948191110FC0958191110CC030
:1022D0009681911109C09781911106C09085911145
:1022E00003C091859923E9F2809350038BE0829F8C
:1022F000F001839FF00D1124E450FD4F86E0A7E725
:10230000B2E001900D928A95E1F786E0E2E1F5E016
:10231000ADE7B2E001900D928A95E1F788E090E098
:102320009093840280938302809167029091680267
:102330000E96909368028093670226960FB6F894E3
:10234000DEBF0FBECDBFDF91CF911F910F91FF90E8
:10235000EF900895E0909702F09098028091DD024E
:102360009091DE028E259F25209175023091760294
:1023700082239323892B09F07ECF10936C02009364
:102380006B02F0926E02E0926D0285CF8093500353
:1023900046E050E06FEF70E087E792E00E94DB33A9
:1023A00086E0E7E9F2E0DF01282F1D922A95E9F7A0
:1023B000E2E1F5E0ADE7B2E0982F01900D929A9539
:1023C000E1F7E2E1F5E0ADE8B2E0982F01900D927F
:1023D0009A95E1F710939E0200939D02F092A0025D
:1023E000E0929F022091DB023091DC023093940254
:1023F000209393022091DD023091DE023093960209
:102400002093950220E031E030938C0220938B02E0
:10241000309386022093850228E030E030938802D2
:10242000209387028093890294E090938A0228E0A7
:1024300036E030938402209383022DEA32E0309319
:102440006A02209369022AE230E030936802209306
:102450006702BE016F5F7F4FDB011D928A95E9F72E
:102460008BE692E00E94971068CF8091970290913E
:102470009802019609F0E7CE86E0E1E1F1E0A7E7F6
:10248000B2E001900D928A95E1F73FCF209175025D
:1024900030917602209530956091DD027091DE02D8
:1024A000262B372B60919702709198026217730761
:1024B00009F0DACEE1CFCF93DF93EC010E94101147
:1024C00080916702909168028A9739F00E940B0907
:1024D0001D821C82DF91CF91089510924F0280914E
:1024E0004E028D7F80934E02DF91CF910C940B09A9
:1024F00070936402609363021616170664F42091C9
:102500006102309162022817390729F0AB01BC0142
:10251000C9010C94D2330895EF92FF920F931F9349
:10252000CF93DF93E0915802F0915902C185D28593
:10253000209761F0F0905E02F1FE03C08A8188234B
:1025400039F1F3FE03C08D81811107C0DF91CF9176
:102550001F910F91FF90EF9008958C8180934F020F
:1025600080914E02826080934E028AE280934C02F8
:10257000688179816B5271098091690290916A0238
:10258000DF91CF911F910F91FF90EF900C947812F3
:102590008091990290919A0297838683809191020B
:1025A0009091920291838083809193029091940202
:1025B0009383828380919D0290919E029827892720
:1025C00098270897A1F00E946F05E82E8A83882338
:1025D00009F4B7CF0E9420078C012AE230E0409135
:1025E0004D0270E060E08E2D0E943C06AACF1A8258
:1025F000A8CF8F929F92AF92BF92CF92DF92EF922D
:10260000FF920F931F93CF93DF93C0905F02D09000
:102610006002F601E48CF58CC0915E02A090690224
:10262000B0906A02E114F10409F488C0F7018181D5
:10263000C1FF24C0009167021091680201151105C5
:10264000E9F0882339F181FD19C04701F2E08F0ECE
:10265000911CD0E0F40181914F01882309F4BCC0A2
:10266000DF5FD530B9F780914E028E7F80934E02A6
:10267000F601818D8061818FF701818183FF0AC01E
:10268000877FF7018183C260C0935E02F601818D6E
:102690008F7E818FC4FF2FC0E70127968701045FDB
:1026A0001F4F89910E94F603FE0131971082C017D7
:1026B000D107B9F7F7018281811136C01182F60185
:1026C000158E148EC12CD12CD0E0C0E0B601C5010E
:1026D0000E947812D0936802C0936702DF91CF9175
:1026E0001F910F91FF90EF90DF90CF90BF90AF9030
:1026F0009F908F900895C7FDCFCFC5FDCDCFC0FD72
:1027000081C0CC7009F483C0F7018781882309F464
:1027100053C0908591118BC0C485D585209709F051
:10272000B0C0C12CD12CD2CFF60184819581F701A4
:1027300090878783818184608183C1CFC6FD05C076
:10274000C12CD12CD0E0C0E0C1CFE4E0F2E090E0B9
:1027500080E02181222331F0019672968430910528
:10276000C1F7EECF7C01EE0CFF1CEE0CFF1CEE0C53
:10277000FF1C8E0D9F1D880F991F9C012C5F3D4FE4
:10278000790182E1F90111928A95E9F7C6018F5723
:102790009340959587954FEE5EEE849F9001859FBF
:1027A000300D949F300D1124F701208381E0818347
:1027B000F601F58EE48E3ACF818181FFC1CFF7011A
:1027C0001182F601158E148E80E180935E02C12C79
:1027D000D12CD0E0C0E07ACFC8010E946F05F4018F
:1027E00031978083882309F43BCF950127573240E6
:1027F00040914D0270E060E00E943C06D43009F048
:102800003BCF36CFC70107960E94AD097DCFF701B8
:10281000818181FF95CF8781882389F2F601818D9F
:102820008061818FC12CD12CD0E0C0E04FCF0E94BD
:102830002007EC01892B09F474CF8501075712405A
:1028400000934C021127C80108968C0F9D1F6E0142
:10285000009721F10E946F0580934F02882309F4AD
:1028600035CFB8016F5F7F4F8E0130E020E0F70178
:1028700047810E943C0680914E02826080934E0206
:1028800025CF90E0FC01EE0FFF1FEE0FFF1FE80FBA
:10289000F91FE050FC4FD383C283CFCF10924F0279
:1028A00015CFAF92BF92CF92DF92FF920F931F93FB
:1028B000CF93DF93843009F423C1C0915F02D0919C
:1028C00060022DEA32E030936A022093690230936D
:1028D000620220936102833009F479C0823009F4E6
:1028E000DAC1853009F492C180918502853409F0FE
:1028F00073C08091870290E0982F8827009188020A
:10290000080F192F111D809167029091680280179E
:10291000910708F461C010936802009367028091E8
:102920008B028F7309F058C0F0908C02F11054C0E4
:10293000C090DB02D090DC02C114D10409F0BEC209
:102940008091DD029091DE02892B09F0B7C20E94CE
:10295000C407019609F040C080918E02863009F4C8
:1029600053C3813109F46CC08130B1F58091990273
:10297000883091F51092990280919B0290919C026F
:10298000873F4FEF940708F4D3C5099690939C02B4
:1029900080939B0280919102909192029093960273
:1029A0008093950280919302909194029093980263
:1029B00080939702D0929202C09291028091DD02A0
:1029C0009091DE02909394028093930209C0898DC6
:1029D0008F70833009F43FC1109268021092670231
:1029E00010925E02DF91CF911F910F91FF90DF90C7
:1029F000CF90BF90AF9008958F3F980709F4F6C22B
:102A00002091730230917402209530952C293D2934
:102A10002817390709F05BC22091750230917602C0
:102A2000209530954091DD025091DE02242B352B0C
:102A300040919702509198024217530709F047C2FC
:102A40000C5111091093680200936702C1EAD2E0A9
:102A5000D0936A02C093690280919F029091A00274
:102A6000892B09F03DC320919B0230919C02A091DB
:102A70009902B0919A026091910270919202C09075
:102A80009302D0909402E1E5F3E006C03B9683E028
:102A9000ED37F80708F0B3C2848195810097B1F350
:102AA0008217930799F786819781009719F08A1703
:102AB0009B0761F780819181009709F08CC20281A8
:102AC0001381012B41F08617970701F782819381CB
:102AD000C816D906D9F6F0935902E093580210921D
:102AE000600210925F0282E080935E02D0936202E5
:102AF000C093610210926402109263020E948C12D1
:102B00008091630290916402009709F465CF9C0163
:102B1000245E3F4F30936802209367023093870210
:102B200020938802E0915802F09159022085209369
:102B30008D0221E120938E020896982789279827F5
:102B400090939E0280939D021092A00210929F0289
:102B50008481958190939A028093990286819781CE
:102B600090939C0280939B028091DB029091DC0207
:102B700090939202809391028091DD029091DE0207
:102B80009093940280939302808191819093960216
:102B9000809395028281938190939802809397020B
:102BA0008DEA92E090936A028093690281E10E942B
:102BB0003B0880959095009711F48FEF9FEF9093CD
:102BC000A00280939F0285E4809385021092860282
:102BD00010928C0210928B028091500290915102BF
:102BE00001969093510280935002909389028093B2
:102BF0008A021092900210928F020E94C407809560
:102C000090959093900280938F02EACEE0915802C3
:102C1000F091590284819581892B09F4DDCE1092BF
:102C2000600210925F0281EA92E090936A028093C0
:102C30006902909362028093610210926402109282
:102C40006302109268021092670288E080935E022D
:102C50000E948C1255CF88899989892B09F0BCCEA6
:102C600088E080935E020E94F91290915E0295FFC7
:102C7000F8C01092640210926302198E84E180936E
:102C8000A60288E290E0909368028093670280E554
:102C90008093A5026CC090915D029F5F90935D024E
:102CA000911113C090915C029F5F90935C0291110F
:102CB0000CC090915B029F5F90935B02911105C0E5
:102CC00090915A029F5F90935A021092680210925C
:102CD00067021092640210926302998D292F2D7F52
:102CE000253009F4ABC0992309F476CE28893989B7
:102CF000232B09F4ABC02A8D3FEF320F3A8F2111FD
:102D00006BCE2B8D283009F422C13FEF390F3230C2
:102D100008F41AC1422F253008F044E033E001C026
:102D2000330F4A95EAF73A8F2F5F2B8F9F709330BE
:102D300009F445C108F01EC1913009F43EC192303A
:102D400009F04ACE8093A60282E08093AD0294E01F
:102D50009093AE028093AF021092B0028CE290E0AA
:102D6000909368028093670280E68093A50288852D
:102D70008093A10289858093A2028A858093A30211
:102D80008B858093A4028C8580939D028D85809392
:102D90009E028E8580939F028F858093A00286E09D
:102DA00080938E028C819D8190939A0280939902E8
:102DB0008E819F8190939C0280939B028091DB0285
:102DC0009091DC0290939202809391028091DD02B7
:102DD0009091DE029093940280939302888199816E
:102DE00090939602809395028A819B81909398029A
:102DF00080939702898D84FF2EC01092A8021092B2
:102E0000A70280E480938D0280916702909168020E
:102E100090938702809388021092AC021092AB02CA
:102E20001092AA021092A90286E00E943B088095A7
:102E300090959093AA028093A902C5CE8A8D8F5F48
:102E40008A8F883709F0C8CD198EC6CD9F70933010
:102E500009F0C2CD05CF82E08093A7021092A802AC
:102E6000D0CF94FF0FC0109264021092630281E0F1
:102E700090E0998B888B84E0898F1B8E81E1809311
:102E8000A602FFCE20916302309164022115310524
:102E900079F51B8E209161023091620230936A02B3
:102EA0002093690291FF98CD88E290E090936802A8
:102EB0008093670280E18093A602E9CE809195021B
:102EC0009091960220918E02213109F495CDC81679
:102ED000D90609F081CD2091970230919802809116
:102EE000DD029091DE022817390709F075CD2FCD4C
:102EF00090FF37C0198A188A8A899B89821793079D
:102F000028F490936402809363029C01C901398B79
:102F1000288B1B8E209161023091620230936A02ED
:102F200020936902892B69F088899989009749F073
:102F30008896909368028093670288E18093A60246
:102F4000A6CE90915E02AECF253009F0E3CE198E69
:102F500080E880935E020E94F91284E18093A602C9
:102F600090CE88899989009739F290936402809372
:102F70006302CFCF963029F0983019F0943009F0E1
:102F80002BCD81E18093A6027CCE243009F0F0C1E4
:102F9000F092FF0380AD91AD892798278927909300
:102FA000570280935602813042E0940710F080E08F
:102FB00092E09B8B8A8B9D8B8C8B82E1C3CE84E0CD
:102FC00080935E020E94F9128091630290916402E4
:102FD0002DEA32E0A3CF8F3F980709F074CD02812C
:102FE00013810F3F1F4F09F06ECD75CD20919702D1
:102FF000309198022F3F3F4F09F002CD21CDF09341
:103000005902E0935802E8CC86E00E943B08019602
:1030100009F0E2CC40919B0250919C026091990290
:1030200070919A02E0919102F09192028091930244
:1030300090919402CFE7D3E007C06E9623E0C93D9C
:10304000D20711F008F053C0298D2223B1F3AC81CF
:10305000BD814A175B0789F7AE81BF816A177B077D
:1030600061F7A881B981EA17FB0739F7AA81BB810B
:103070008A179B0711F7D0936002C0935F021092EA
:103080005E028091A60282FD4CC29091A5029295AB
:103090009F70990F990F9093FF035801A91AB108D7
:1030A0008501045111091093680200936702E22F11
:1030B000EF70E23009F425C20115110521F4982FB3
:1030C000937009F4CBC049853A859B8560919D0238
:1030D0005885651709F4B6C080E18093A602D1CD6A
:1030E00081E10E943B08019609F076CCBCCC80912E
:1030F000A602982F9F73923009F471C082FD6CCCA8
:1031000084E18093A60288E290E090936802809325
:10311000670280E58093A5023091A0028091A4020D
:103120008093A00220919F028091A30280939F022E
:103130002093A30290919E028091A20280939E020E
:103140009093A20280919D028093FF034091A1027F
:1031500040939D028093A1023F5F3093A4023111FE
:103160000DC02F5F2093A302211108C09F5F909391
:10317000A202911103C08F5F8093A10280919902F6
:1031800090919A02909357028093560220919B024D
:1031900030919C0230939A022093990290939C0262
:1031A00080939B028091910290919202909396025B
:1031B000809395028091930290919402909398024B
:1031C00080939702D0929202C09291028091DD0288
:1031D0009091DE02909394028093930212CE5093CA
:1031E000570240935602E7EFF3E090E004C09F5F80
:1031F000943009F44EC02191319142175307B9F729
:103200001092FF03EFE7F3E090E080E0D0E0C0E051
:103210000AC0373009F4B1C02F5F01967E96843022
:10322000910509F441C0282F318D3111F2CF8093DF
:10323000FF032EE1289FE001299FD00D1124C158E2
:10324000DC4F37C050919E02541346CF40919F02ED
:10325000431342CF3091A00239133ECF84FFF5C112
:10326000688979896115710509F068C1298DE22F96
:10327000EF70E250E73008F0AFCBF0E0EE5BF64ED7
:103280000C94E331F51A0B1ADA19C6194C196C189B
:10329000EC149093FF0332CF80915E0280FF9CCBB1
:1032A00087E0898F1A8E98CB2093FF03209709F42B
:1032B00093CBD0936002C0935F0283E08A8F888FA4
:1032C0001E8A84E08F8B1B8E5D834C837F836E838D
:1032D00080919102909192029983888380919302C8
:1032E000909194029B838A8381E0898F80915A0216
:1032F0008C8780915B028D8780915C028E878091A4
:103300005D028F8781E090E0998B888B8091A0028D
:103310008B8780919F028A8780919E028987809106
:103320009D02888781E090E00E94492A8091A50251
:10333000982F907F913508F440CE82958F708550FC
:10334000990B880F991F880F991FEF2DF0E0E81750
:10335000F9070CF058C0E958FD4F36A9332309F49A
:1033600052C0313009F44DC027A9323009F40DCED6
:10337000222309F448C0F20EE8CF209729F0A28D4D
:103380003A8D3A1708F048CFEF0146CF01151105E5
:1033900031F58091A60280FF1FCB87E0898F1A8EBE
:1033A00081E090E00E94492A80E180935E020E94C1
:1033B000F91292CE0115110519F0C8010E94492A8F
:1033C00080915E0281709091A60290FF13C08823C5
:1033D00071F087E0898F1A8E198A188AE1CFC801A7
:1033E0000E94492A8091A60280FF76CED6CF86E041
:1033F000898FD6CF882359F085E0898F198A188A5A
:10340000EBCAF394A2CFF092FF0382E19BCC012B95
:1034100009F062CEE1CA8091A60280FF20C024FD9F
:103420001EC088899989892B09F0D6CAC50143979E
:103430000E94492A80915E02982F906190935E02CB
:10344000012B19F0826180935E020E94F91281E0E3
:1034500090E0998B888B88E0898F1B8E92CD85FFB9
:1034600014C08091AB029091AC02982789279827CD
:10347000AC0143555D4F50936A0240936902081BAB
:10348000190B1093680200936702409167025091F4
:10349000680290915E024115510551F024FD08C06B
:1034A000926090935E02CA010E94492A90915E0246
:1034B0002091A70230E0522F44272091A802240F28
:1034C000352F311D30935702209356024C895D8968
:1034D0004217530710F0232B21F4509357024093C7
:1034E000560220915602309157023B8B2A8B9370E3
:1034F00009F472CA10926402109263020E94F912D7
:10350000B4CB982F9F73923109F0D6CD84FDA8CE0D
:1035100080E280935E020E94F912198E8091A602C9
:10352000EDCD198E80E280935E020E94F91254CA9A
:10353000089690939C0280939B022CCACE010C9615
:103540000E94162A3091A1028091520238138ECE29
:103550002091A20280915302281388CE9091A30259
:1035600080915402981382CE8091A402409155021A
:1035700084137CCE3C872D879E878F87988D8B8D7B
:10358000811119C08E892A8D921B282F2695269588
:103590002695921B890F8E8B97FD91952F89322F3F
:1035A00036953695231B920F9F8B8695869586952B
:1035B000890F888F982F81E080935E029A8F198AF5
:1035C000188A298DE22FEF70E150E83008F004CA24
:1035D000F0E0E351F54E0C94E331741BF51A0B1A2D
:1035E000DA19C6194C196C18841B80915E0280FF91
:1035F0008FCF8091A6028F73823109F089CF80919D
:10360000A502982F907F913508F447C082958F705E
:103610008550990B880F991F880F991FEF2DF0E0A7
:10362000E817F9070CF05DC0E958FD4F36A93323C0
:1036300009F457C0313009F452C027A93230B1F033
:10364000222309F44EC0F20EE9CFE150E83008F031
:10365000C3C9F0E0E25DF44E0C94E331EC14881A37
:103660000D1ADA19C6194C196C18841B243041F74D
:10367000F092FF0380AD91AD892798278927909319
:10368000570280935602813012E0910710F080E0DB
:1036900092E09B8B8A8B9D8B8C8B83E0898F8091B2
:1036A0009D02888780919E02898780919F028A87E8
:1036B0008091A0028B8781E090E00E94492A82E4F9
:1036C00080935E02198A188A10926802109267022B
:1036D00010926402109263020E94F912C6CAF39417
:1036E0009DCFF092FF03D9CF83E0898F80E4809350
:1036F0005E020115110509F4FDCE82E480935E029D
:10370000C8010E94492AF6CE80915E0280FF64C9FA
:10371000198E80E180935E020E94F9125DC9CF93F9
:10372000DF93FC01448555854115510519F0228927
:10373000211105C090E080E0DF91CF910895EC0168
:1037400081E0838B30E0F901EE0FFF1FEE0FFF1FCA
:10375000E20FF31FE050FC4F8E859F850796938301
:103760008283509359024093580285E00E9451147D
:103770008091670290916802892BE1F2CE010E964A
:103780000E945B1281E090E0D7CF8F929F92AF9220
:10379000BF92CF92DF92EF92FF920F931F93CF933E
:1037A000DF93C0914D02CC23C9F081E080934E029B
:1037B0008C2F0E9420078C019093680280936702EF
:1037C000892B09F0E4C06091090570910A05611523
:1037D000710509F446C06150710945C089E30E9432
:1037E0004F0469E380E00E948904909111059923B8
:1037F000E9F18823D9F16091090570910A058B01DF
:103800000A5F1F4F011528E0120708F00AC180E087
:103810000E94730460E08AE30E948904C82F60E07C
:103820008AE30E948904D82FD0930A05C093090522
:1038300060E08AE30E948904D82E60E08AE30E9457
:103840008904E82E60E08AE30E948904F82E40E4AF
:103850006EE180E80E943004F7FCE9C0209709F08F
:10386000E2C06FEF77E08CE00E94730410924D028B
:103870000E94A8024B015C018091180590911905E6
:10388000A0911A05B0911B0575016401C81AD90AE7
:10389000EA0AFB0ACFE7D3E007EF13E0D093600218
:1038A000C0935F02F7FE60C0EC8DFD8D309741F153
:1038B00086859785A089B189A5019401281B390BBC
:1038C0004A0B5B0BDA01C901B7FD1AC083E00E9405
:1038D00051140E94A802E0915F02F0916002048CF2
:1038E000F58DE02D665F7F4F8F4F9F4F66877787FF
:1038F000808B918B8091670290916802892BE9F50A
:103900006E960C171D0751F6F7FC21C03AEF830E97
:10391000911CA11CB11C8092180590921905A092CF
:103920001A05B0921B05C1E5D3E0D0935902C093AC
:10393000580285E00E9451148091670290916802BC
:10394000892B01F52B9643E0CD37D40771F7DF9132
:10395000CF911F910F91FF90EF90DF90CF90BF908C
:10396000AF909F908F90089582E00E9451148091B3
:10397000670290916802892B19F20E9410110E942F
:103980000B09BECF89859A850E945B12DBCF42E688
:1039900050E067E772E08C2F0E94F106E09083020E
:1039A000F090840248E0E416F10409F454C058E0B1
:1039B000E51656E0F50609F006CF1092680210925F
:1039C00067020A32110508F4FECE80918B029091B5
:1039D0008C02811521E0920709F4A4C08115924060
:1039E00009F0F1CE20919D0230919E028091DB0280
:1039F0009091DC022817390709F0E5CE20919F024B
:103A00003091A0028091DD029091DE0228173907E3
:103A100009F0D9CE6DE872E083E992E00E94971038
:103A2000D2CE1850F4CEBE01615071091CCFC11521
:103A300038E0D307C0F710930C0500930B059E2DBB
:103A40008D2D049790930E0580930D058FEF809335
:103A50004D02CFEFAACEC0934F020E501109109322
:103A60006802009367024091910250919202209166
:103A7000DB023091DC02CA01822793276091730236
:103A80007091740286239723892BA9F56091930284
:103A900070919402E091DD02F091DE02CB018E275D
:103AA0009F27A0917502B09176028A239B23892BD0
:103AB00011F580919502909196022817390709F423
:103AC000A1C0E8EFF2E080E004C08F5F3B96883051
:103AD00031F12081318142175307B9F722813381B7
:103AE0006217730791F7809350036DE772E081E9E5
:103AF00092E00E94971081E00E9451148091670229
:103B000090916802892B21F00E9410110E940B09EC
:103B100080914E028170882309F4AACE54CE8093FE
:103B20005003E9CF00919D0210919E028091DB022B
:103B30009091DC020817190709F045CEC0919F0249
:103B4000D091A0028091DD029091DE02C817D907C2
:103B500009F039CE6DE872E083E992E00E94971097
:103B600080E092E090938C0280938B0286E0EDE8F7
:103B7000F2E0A7E9B2E001900D928A95E1F786E0C4
:103B8000E2E1F5E0ADE8B2E001900D928A95E1F74F
:103B900086E0E2E1F5E0ADE7B2E001900D928A95B2
:103BA000E1F786E0E7E9F2E0A7E7B2E001900D92E5
:103BB0008A95E1F7809193029091940290939E02EE
:103BC00080939D0280919502909196029093A0021D
:103BD00080939F021093940200939302D0939602D5
:103BE000C0939502F0928402E09283028AE290E010
:103BF00090936802809367020E940B0980914E02A5
:103C0000817089CF8091970290919802E817F90707
:103C100009F057CF6ACF8091110581110C94C51B13
:103C20000895CF93DF93EC010E940B1E89890E94B7
:103C3000F603198ADF91CF9108950F931F93CF93C5
:103C4000DF931F92CDB7DEB78C010E940B1EF801E7
:103C50008189882389F041E050E0BE016F5F7F4F8A
:103C60000E94F106019741F4898190E00F90DF9165
:103C7000CF911F910F9108958FEF9FEFF7CFEF92A4
:103C8000FF920F931F93CF93DF93EC018B017A0187
:103C90000E940B1E8989811109C080E090E0DF91AC
:103CA000CF911F910F91FF90EF900895A701B80158
:103CB0000E94F1068C01F9888F2D0E942007801741
:103CC0009107F9F08F2D90E0FC01EE0FFF1FEE0F32
:103CD000FF1FE80FF91FE050FC4F80819181800F9A
:103CE000911F9183808382819381801B910B9383A9
:103CF0008283C801DF91CF911F910F91FF90EF90C8
:103D000008958F2D0E94F603198AC801F3CFCF932F
:103D1000DF93EC010E940B1E8989DF91CF910C94F7
:103D20002007CF93DF93EC010E940B1E898981113C
:103D30000E94F6038889898B188ADF91CF910C94B1
:103D40002007CF92DF92EF92FF920F931F93CF93B2
:103D5000DF9300D000D0CDB7DEB77C018B016A01C4
:103D60000E940B1ED80112968C91D7011C96ED91E2
:103D7000FC91811106C0D80113968C91139788236A
:103D800071F1C114D104A1F1D80112962D913C9189
:103D900013973A83298314968D919C919C838B83EE
:103DA000DC24CD24DC24309709F43FC0D782C682BE
:103DB0003183208393838283F70182898823F1F002
:103DC00080E090E00F900F900F900F90DF91CF91D7
:103DD0001F910F91FF90EF90DF90CF900895149670
:103DE0008C9114978111CDCF15968C918111C9CFEB
:103DF000EF2B31F3F70182898111E2CF8EE096E05B
:103E00000E946F05D70152968C9352972BE230E0B7
:103E10001F963C932E931E9721E090E0882311F08B
:103E2000822FD0CF20E0822FCDCFB601CE010196D8
:103E30000E948D0DF70195878487009709F29701FD
:103E4000225F3F4FDC011A963C932E931997F7019E
:103E500082898111B5CFD2CF2F923F924F925F923C
:103E60006F927F928F929F92AF92BF92CF92DF928A
:103E7000EF92FF920F931F93CF93DF93CDB7DEB7EF
:103E800063970FB6F894DEBF0FBECDBF3C016B0148
:103E90005A01FB019081992309F4A2C03196DF01F8
:103EA000892F8E3219F080538A30A8F58D918111B7
:103EB000F8CF70E060E050E040E016C09B01220FB8
:103EC000331F220F331F260F371F220F331F892F57
:103ED000990F990BC097BC01620F731F91919923A1
:103EE000A9F044305105B9F09E3241F76F3F71059A
:103EF00009F08CF4D501A40FB51F12966C934F5F97
:103F00005F4F70E060E091919111EBCF6F3F7105D1
:103F100009F00CF459C0F301428153816481758129
:103F20008091BB059091BC05A091BD05B091BE05E7
:103F3000481759076A077B0709F402C28301085F23
:103F40001F4F0E94A8026F7077277C5FC8010E94F4
:103F50001F0EF12CE12C8130D1F0C70163960FB612
:103F6000F894DEBF0FBECDBFDF91CF911F910F91AF
:103F7000FF90EF90DF90CF90BF90AF909F908F9089
:103F80007F906F905F904F903F902F90089587E7BC
:103F900091E09A838983F30182819381A481B58121
:103FA0008B839C83AD83BE8345E350E0BE016F5F8E
:103FB0007F4FC8010E94A11E892BB1F4F12CE12C86
:103FC000C8010E94480EC9CF4430510509F4A3CF5F
:103FD000A40EB51EF5016283EE24E394F12CBDCF4F
:103FE00050E040E060E0F4CF0E94A802F301778344
:103FF000668342E050E0B3016A5F7F4FC8010E94D0
:10400000880781E090E09A83898342E050E0BE0116
:104010006F5F7F4FC8010E94880780E091E09A831C
:10402000898342E050E0BE016F5F7F4FC8010E946C
:1040300088071A82198242E050E0BE016F5F7F4F0D
:10404000C8010E94880742E050E0BE016F5F7F4FC9
:10405000C8010E94880742E050E0BE016F5F7F4FB9
:10406000C8010E948807F60180818823B9F19E016A
:10407000235F3F4F19018823A1F12601FFEF4F1A5B
:104080005F0A8E3221F458C18E3201F12701F2010C
:1040900081917F018111F8CF42018C189D0818147D
:1040A0001904FCF48D8641E050E0B101C8010E9482
:1040B0008807A401B601C8010E9488076701F201C0
:1040C0008081882371F0F6018081D5CF42018C1860
:1040D0009D081814190434F36701F5CFCE010D962D
:1040E0001C011D8641E050E0B101C8010E94880713
:1040F000E12CFF24F394FA82E98242E050E0BE0111
:104100006F5F7F4FC8010E948807FA82E98242E010
:1041100050E0BE016F5F7F4FC8010E948807C80151
:104120000E948F1B892B09F449CFA3E08A2E912C82
:104130000E94A8026B017C0112C00E94A8026C19A7
:104140007D098E099F09693873418105910508F041
:104150000FC162E370E080E090E00E941902C801A4
:104160000E94911E1816190644F7F301C280D380ED
:10417000E480F580B801CE0101960E944C078B8146
:104180009C81AD81BE81C816D906EA06FB0609F0FE
:10419000F8C0C8010E943D07C59709F0F2C0C801E8
:1041A0000E94871E0C970CF405C14CE050E0BE0144
:1041B0006F5F7F4FC8010E943F1E8B819C819827B3
:1041C000892798279A8B898BF3014681578129810A
:1041D0003A814217530709F0E5C097FFE3C08F709B
:1041E0009270892B09F0F3C08F80988498248924D9
:1041F00098248114910409F4E2C08D819E81892B59
:1042000011F1F12CE12C41E050E0B101C8010E9414
:104210003F1E8D85811184C0C8010E946B07C801B3
:104220000E946B07C8010E946B07C8010E946B07C0
:10423000FFEFEF1AFF0A8D819E8198278927982723
:10424000E816F90600F3D12CC12C41E050E0BE0184
:104250006D5E7F4FC8010E943F1E8B89982F907C16
:1042600009F04DC0811150C042E050E0BE01615FD5
:104270007F4FC8010E943F1E42E050E0B101C801DB
:104280000E943F1EC8010E946B07C8010E946B0775
:10429000C8010E946B07C8010E946B0742E050E012
:1042A000BE016F5E7F4FC8010E943F1E8F859889B7
:1042B0008115914009F449C089899A89F12CE12C32
:1042C000892B71F0C8010E946B078FEFE81AF80A7A
:1042D00089899A89982789279827E816F90690F3FB
:1042E0009FEFC91AD90AC814D90409F0AECFC80182
:1042F0000E94111E36EFE32EFF24FA9461CEC8010E
:104300000E946B071B8AB0CF81508B8BC8010E9423
:104310006B078B899FEF980F9B8B8111F7CF95CF00
:1043200081508D87C8010E946B078D859FEF980F84
:104330009D878111F7CF67CFFFEFCF1ADF0AC3CE7A
:104340008EEFE82EFF24FA9408CE8D859E85811588
:10435000914009F0B1CF89899A8981159440B1F0D3
:10436000C8010E94111E57EFE52EFF24FA9428CEB3
:10437000E1E08E1A910809F0DBCEEE24EA94FE2CDF
:104380001FCEFEEFEF2EFF24FA941ACEB5016E5F1A
:104390007F4F44E050E0C8010E943F1EEE24E394AA
:1043A000F12C0ECEC8010E94111EECEFEE2EFF2460
:1043B000FA9406CE2DEFE22EFF24FA9401CEC80126
:1043C0000E94111E6AEFE62EFF24FA94F9CDC8016F
:1043D0000E94111E7BEFE72EFF24FA94F1CDCF92BD
:1043E000DF92EF92FF920F931F93CF93DF93CDB79E
:1043F000DEB7A8970FB6F894DEBF0FBECDBF7C0125
:104400006A0107E711E01A8309831C861B8688EE80
:1044100093E0A0E0B0E08D879E87AF87B88B8DE2F8
:1044200091E09A8789871E8A1D8AFE01779686E029
:10443000DF011D928A95E9F71CA30BA31DA21EA202
:104440001FA218A68091200690912106A091220615
:10445000B09123068F8F98A3A9A3BAA38B839C83C3
:10446000AD83BE8318861F82AE014D5D5F4FCE01C6
:1044700001960E942C1F8130910579F0A8960FB605
:10448000F894DEBF0FBECDBFDF91CF911F910F918A
:10449000FF90EF90DF90CF900895D701ED91FC91C0
:1044A0000488F589E02D1E8F0D8F8DA19EA1AFA1EF
:1044B000B8A58F8F98A3A9A3BAA3A601BE01635E76
:1044C0007F4FC7010995DACFCF92DF92EF92FF922B
:1044D0000F931F93CF93DF93CDB7DEB7A8970FB697
:1044E000F894DEBF0FBECDBF7C016A0107E711E083
:1044F0001A8309831C861B8688EE93E0A0E0B0E057
:104500008D879E87AF87B88B8DE291E09A878987E8
:104510001E8A1D8AFE01779686E0DF011D928A952C
:10452000E9F71CA30BA31DA21EA21FA218A680912F
:10453000200690912106A0912206B09123068B833C
:104540009C83AD83BE8318861F82AE014D5D5F4F95
:10455000CE0101960E942C1F8130910579F0A8961A
:104560000FB6F894DEBF0FBECDBFDF91CF911F9184
:104570000F91FF90EF90DF90CF900895D701ED91CC
:10458000FC910684F785E02D1E8F0D8F8DA19EA1D5
:10459000AFA1B8A58F8F98A3A9A3BAA3A601BE0106
:1045A000635E7F4FC7010995DACF6F927F928F923A
:1045B0009F92BF92CF92DF92EF92FF920F931F9341
:1045C000CF93DF93CDB7DEB7A6970FB6F894DEBFD3
:1045D0000FBECDBF6C01B62E942E852E20E2722E1A
:1045E0008E010F5F1F4FD801E72D1D92EA95E9F765
:1045F0007C01FFE3EF0EF11C87E791E09AA389A30A
:104600008FEF8BA38CA38DA38EA343E450E0BE0158
:104610006F5D7F4FC7010E94A11E0196A1F4A6966F
:104620000FB6F894DEBF0FBECDBFDF91CF911F91C3
:104630000F91FF90EF90DF90CF90BF909F908F9061
:104640007F906F90089581E089838A8386E0682E49
:104650006B821C82D60114966D917D918D919C91F7
:1046600017970E94E9316D837E838F8398878986AF
:104670009A8680E890E09C878B874CE150E0B801F7
:10468000C7010E948807FE0137968AE1DF011D926B
:104690008A95E9F74601B8E08B0E911CF401D80128
:1046A00001900D926A94E1F740E150E0B801C70132
:1046B0000E948807F80111927A94E9F796E0692E32
:1046C000712C40E250E0B801C7010E948807F1E078
:1046D0006F1A7108B1F783E6898392E89A8393E5AC
:1046E0009B838C8385E38D8391E09E83BF828DE3E2
:1046F000888787E089879A8796E0F401DE011B9618
:1047000001900D929A95E1F79CE0998B9A8BECE7DA
:10471000F1E0DE01539601900D928A95E1F7D60102
:104720001B968C9190E3998FFE017B9605C0805D6E
:104730008293892F992359F0982F92959F708F70AB
:104740008A30A8F3895C8293892F9111F5CFF60105
:10475000848590E39B8FFE017D9605C0805D8293EA
:10476000892F992359F0982F92959F708F708A30D6
:10477000A8F3895C8293892F9111F5CFD6011D96FC
:104780008C9190E39D8FFE017F9605C0805D8293A2
:10479000892F992359F0982F92959F708F708A30A6
:1047A000A8F3895C8293892F9111F5CF4EE150E0F7
:1047B000B801C7010E948807B3E0BB16D9F087E3B0
:1047C000898386E08A8391E09B8393E09C838D8339
:1047D0008FE08E838AE38F838BE388878FEF8987CF
:1047E00049E050E0B801C7010E948807C7010E9454
:1047F0008F1B15CF82E3898384E08A83F601968537
:104800009B8397859C8390899D8391899E8396E362
:104810009F838887828D8987838D8A87848D8B8704
:10482000858D8C874CE050E0B801C7010E94880755
:10483000C6CFCF93DF93EC010E940B1EAC85BD85E4
:1048400017968C9117978823B9F0FD01389621E0CF
:1048500081918823B1F02F5F2530D1F720E038E037
:104860001C968D919C91280F391F80E09AE0821B45
:10487000930BDF91CF91089580E09AE0DF91CF9183
:104880000895215030E0322F2227330FE9CF8F9245
:104890009F92AF92BF92CF92DF92EF92FF920F93CF
:1048A0001F93CF938C015B016A017A010E940B1E5A
:1048B0000115110509F44AC0F8018181882309F422
:1048C00045C0867009F042C03896C1E081918823C6
:1048D000C9F1CF5FC530D1F784E0882E912CC4E0B8
:1048E000800E911EF40187818823E9F0F801648528
:1048F0007585A6014E195F094A0D5B1D97010E943F
:104900006F06E81AF90AF80124853585820F931F8E
:10491000958784871E141F043CF5C43039F2CF5F9D
:1049200048018C0E911C80E092E00E946F05F4011A
:104930008783882309F4BACFF8011586148670E0BE
:1049400060E0D7CFC1508C2E912CCACF90E080E090
:10495000CF911F910F91FF90EF90DF90CF90BF907C
:10496000AF909F908F9008950E94A802665F7F4F3E
:104970008F4F9F4FF80166877787808B918BC60199
:104980008E199F09E5CFFC01848595850C944724F9
:10499000CF93DF931F92CDB7DEB7698341E050E03C
:1049A000BE016F5F7F4FFC01848595850E9447247F
:1049B0000F90DF91CF910895CF93DF93EC010E9488
:1049C0000B1EEC85FD85309739F0818182FF08C090
:1049D00081E09281911105C080E0DF91CF9108952F
:1049E00081E0DF91CF910895EF92FF920F931F9393
:1049F000CF93DF937C01DC011C96ED91FC91309705
:104A0000D1F081818823B9F0EF0122968F01095FEF
:104A10001F4F89910E94F603FE0131971082C01743
:104A2000D107B9F7D7011C96ED91FC91818182FDE8
:104A30000DC082608183F70115861486DF91CF91C6
:104A40001F910F91FF90EF900C940B1E1182F3CFEA
:104A5000AF92BF92CF92DF92EF92FF920F931F938C
:104A6000CF93DF938C01EB017A01DC01ED91FC9196
:104A70000488F589E02D0995AA80BB806C817D8131
:104A80005E2D4F2DC0907D03D0907E03BFEFCB1ADB
:104A9000DB0A3C2D2D2DC114EDE7DE0628F020E1C8
:104AA00030E0C12CB0E1DB2EEFE7F3E080E0918D48
:104AB000992329F0C481D581C217D30739F38F5FB9
:104AC0007E968430A1F7D0927E03C0927D0310922F
:104AD000FF0380919803882309F474C0EDE9F3E0A3
:104AE00091E0D0E0C0E0AFE7CA2EA3E0DA2E0CC020
:104AF0009430D1F06F01818DFF24F394F90E7E96EE
:104B0000882309F453C09F2D873091F7209749F0EF
:104B10007F0184E0E81AF108D701FC908A8D8F1597
:104B200038F7E601943031F79093FF03209789F12D
:104B300082E0898F80915A028C8780915B028D87F9
:104B400080915C028E8780915D028F8780E092E089
:104B50009B8B8A8B9D8B8C8B81E090E0998B888BD3
:104B60001B8E8A8F83E0888F1E8A80E18F8B3D8326
:104B70002C835F834E83B982A8827B836A8382E021
:104B800006C00E940B1E898D8F70833099F08111B1
:104B9000F8CF90E080E0DF91CF911F910F91FF90CF
:104BA000EF90DF90CF90BF90AF9008959093FF0368
:104BB000E601BECF8C8D9D8DF8019587848781E0BD
:104BC00090E0E9CFCFE7D3E0B3CF2F923F924F925F
:104BD0005F926F927F928F929F92AF92BF92DF927D
:104BE000EF92FF920F931F93CF93DF93CDB7DEB772
:104BF000C254D1090FB6F894DEBF0FBECDBF7C0101
:104C00005B010E94A8022B013C018701015C1F4F40
:104C100011C00E94A8026419750986099709613AB2
:104C20007F4081059105A8F562E370E080E090E0A7
:104C30000E941902C8010E94911E181619064CF70D
:104C400042E250E0BE016F5F7F4FC8010E943F1EED
:104C50008981823009F1D12CC8010E94111E8D2D4D
:104C6000CE5BDF4F0FB6F894DEBF0FBECDBFDF9136
:104C7000CF911F910F91FF90EF90DF90BF90AF9079
:104C80009F908F907F906F905F904F903F902F906C
:104C90000895DD24DA94E3CFC8010E943D078334F0
:104CA0009105C9F66D817E818F8198850E94E931D9
:104CB000F50160837183828393834D8D5E8DF7014F
:104CC000208531854217530709F4AAC021E030E05E
:104CD000232B09F0B8C0F70180809180A280B380B7
:104CE000681579058A059B0508F4ADC08480958018
:104CF000A680B78086169706A806B90608F4A3C052
:104D000089899A89AB89BC8986879787A08BB18B63
:104D10008EECA82EB12CC8010E946B07F1E0AF1AEF
:104D2000B108C9F7D12C270122E2420E511C17010C
:104D300086E2280E311CF701BA96FCAFEBAF4701B3
:104D4000FAE18F0E911CC70142969EAF8DAFF7011D
:104D500076962196FFAFEEAF21970C9623969FAFE4
:104D60008EAF2397C8010E94871E181619060CF0F3
:104D700073CFC8010E946B078333910509F4B1C05A
:104D80000CF466C08A33910509F4C4C00CF08FC0DE
:104D90008533910509F414C1C69709F000C1C80113
:104DA0000E946B07A82E1FAA18AE19AE1AAEB40146
:104DB000CE018F960E94831049A95AA96BA97CA99C
:104DC0008FA998ADA9ADBAAD481759076A077B07F7
:104DD00009F403C1B801CE0189960E944C07B401C1
:104DE000CE0183960E9483104DA15EA16FA178A58C
:104DF0008BA59CA5ADA5BEA5481759076A077B07DB
:104E000009F4EBC0BB24BA94BA0CAA2009F4AACFC7
:104E1000C8010E946B07BA94EFEFBE12F9CFA2CF80
:104E20004F8D58A1228533854217530709F04ECF85
:104E300049A15AA1248535854217530709F046CF69
:104E400030E020E045CFC8010E94111ED12C07CFD1
:104E50008130910509F495C00CF49EC08330910512
:104E600009F46DC0069709F09AC0C8010E946B074B
:104E70005C0144E050E023966EAD7FAD2397C801FE
:104E80000E943F1EBB2425E0A216B1040CF46ACF99
:104E900084E0A81AB108712C612CC8010E946B072C
:104EA0009FEF691A790AA614B704B9F75BCF8B3361
:104EB000910509F08DC0C8010E946B0744E050E0E5
:104EC0006BAD7CADC8010E943F1EF70162A573A5C2
:104ED00084A595A50E94E93162A773A784A795A729
:104EE00041CFC8010E946B0744E050E0B201C80105
:104EF0000E943F1EF70162A173A184A195A10E94A7
:104F0000E93162A373A384A395A366A777A780ABB7
:104F100091AB28CFC8010E946B0744E050E0B1017B
:104F2000C8010E943F1EF70166A177A180A591A547
:104F30000E94E93166A377A380A791A713CFC80188
:104F40000E946B075C0144E050E021966EAD7FAD9E
:104F50002197C8010E943F1EBB2495E0A916B10409
:104F60000CF400CFE4E0AE1AB108712C612CC8013A
:104F70000E946B07FFEF6F1A7F0A6A147B04B9F770
:104F8000F1CEC8010E946B0744E050E06DAD7EADEC
:104F9000C8010E943F1EE6CE892B09F4E3CEC8016A
:104FA0000E946B07BB24BA94B80E882309F4DACEAA
:104FB000C8010E946B07BA94FFEFBF12F9CFD2CE9F
:104FC000C8010E946B07C8010E946B07D82ECACE89
:104FD0008F3F910509F4C6CEE2CF44E050E0B40122
:104FE000C8010E943F1EBECE2F923F924F925F9209
:104FF0006F927F928F929F92AF92BF92CF92DF92E9
:10500000EF92FF920F931F93CF93DF9300D000D0C6
:10501000CDB7DEB78C010E94BC302FEC37E040E00A
:1050200050E00E944931DC01CB010196A11DB11D68
:10503000F80184839583A683B78380839183A283B9
:10504000B3836801FFE3CF0ED11CC6010E94480E56
:1050500064E470E0C6010E941F0EF12CE12C811166
:1050600018C0C7010F900F900F900F90DF91CF9154
:105070001F910F91FF90EF90DF90CF90BF90AF9076
:105080009F908F907F906F905F904F903F902F9068
:1050900008950E94A8024B015C0158EE452E53E092
:1050A000552E612C712C62E0262EF12CE12CD801BA
:1050B000DE968C91DE978330D9F0882309F47BC08B
:1050C000843009F49AC0813009F4B6C0823001F10D
:1050D000B1E0EB16F10409F46AC00E94A802681955
:1050E00079098A099B0961367A4E81059105E8F2B2
:1050F000C6010E94480EF80184819581A681B7817E
:105100000196A11DB11D84839583A683B783A9CF82
:10511000BE016F5F7F4FC8010E94E525382EB5E0C4
:105120008B139BC023E0F80126AF82A193A1A4A119
:10513000B5A1892B8A2B8B2B41F484E893E0A0E066
:10514000B0E082A393A3A4A3B5A3F80186A197A17D
:10515000A0A5B1A50097A105B10561F482A193A115
:10516000A4A1B5A1B695A7959795879586A397A372
:10517000A0A7B1A7F80142A553A564A575A541153F
:1051800051056105710551F4AC01BD01440F551F76
:10519000661F771F42A753A764A775A7F80186A7C4
:1051A00097A7A0ABB1AB42AB53AB64AB75ABEE24EE
:1051B000E394F12C7CCF14968D919D910D90BC9130
:1051C000A02D0196A11DB11DF80184839583A683AE
:1051D000B7830E94A802681979098A099B09A3016B
:1051E00092010E94B231A90161E0C8010E94D5225A
:1051F00081E0D801DE968C936BCFF8018481958194
:10520000A681B7810196A11DB11D84839583A683D4
:10521000B7830E94A802681979098A099B09A3012A
:1052200092010E94B231A90163E0C8010E94D52217
:10523000D801DE962C924CCFBE016F5F7F4FC80124
:105240000E94E525382EB2E08B1769F0FFEF3F1280
:105250003FCFD801DE961C923BCFB6E08B13F6CF42
:10526000F80116AE35CF89819A81AB81BC81F801F6
:1052700084839583A683B7830E94A802681979095D
:105280008A099B09A30192010E94B231A90163E03E
:10529000C8010E94D522D801DE963C9219CF1F92F8
:1052A0000F920FB60F9211242F933F938F939F93DA
:1052B000AF93BF938091F0029091F102A091F2021E
:1052C000B091F3023091EF0223E0230F2D3768F104
:1052D00026E8230F0296A11DB11D2093EF028093B3
:1052E000F0029093F102A093F202B093F302809146
:1052F000F4029091F502A091F602B091F7020196A6
:10530000A11DB11D8093F4029093F502A093F602C3
:10531000B093F702BF91AF919F918F913F912F91E1
:105320000F900FBE0F901F9018950196A11DB11DF3
:10533000D4CF1F920F920FB60F9211242F933F9349
:105340004F935F936F937F938F939F93AF93BF938D
:10535000EF93FF938CE195E00E946203FF91EF9140
:10536000BF91AF919F918F917F916F915F914F917D
:105370003F912F910F900FBE0F901F9018951F9285
:105380000F920FB60F9211242F938F939F93EF9349
:10539000FF93E0912C05F0912D058081E09132057D
:1053A000F091330582FF0BC08081FF91EF919F91B7
:1053B0008F912F910F900FBE0F901F901895208105
:1053C000809135058F5F8F7390913605891769F34A
:1053D000E0913505F0E0E45EFA4F258F80933505C6
:1053E000E4CF1F920F920FB60F9211242F933F9389
:1053F0004F935F936F937F938F939F93AF93BF93DD
:10540000EF93FF93F0E0E0E00995FF91EF91BF91FA
:10541000AF919F918F917F916F915F914F913F914C
:105420002F910F900FBE0F901F901895FC013381A4
:10543000360F30935502A72FBB2792819A0F909376
:1054400054022181209353024081409352029A17C3
:105450001B0648F481E0820F80935302811103C040
:105460004F5F4093520277273617170688F49F5FE5
:105470009093540291110CC0809153028F5F8093DE
:105480005302811105C0809152028F5F80935202B6
:105490000895CF93DF93C0915F02D0916002BC0169
:1054A000CE0108960E94162AE2E5F2E08081888704
:1054B0008181898782818A8783818B87DF91CF91E0
:1054C0000895CF93DF93ECE1F5E01382128248EE6A
:1054D00053E060E070E044835583668377838BE11B
:1054E00091E09183808385EC90E09587848784ECBC
:1054F00090E09787868780EC90E0918B808B81ECA1
:1055000090E0938B828B82EC90E0958B848B86EC81
:1055100090E0978B868B118E128E138E148EE9EB92
:10552000F5E087E791E091838083128213821482F1
:105530001582EFEBF5E0918380831282138214824F
:105540001582E5ECF5E09183808312821382148248
:105550001582E4E2F6E09183808312821382148242
:105560001582EEE1F6E09183808312821382148229
:10557000158210920D0610920C0640930E06509361
:105580000F0660931006709311062DE231E0309300
:105590000B0620930A061092170610921606E8E1F1
:1055A000F6E026E0DF011D922A95E9F7EAE2F6E04F
:1055B000918380831282138214821582EDE5F6E0D6
:1055C000918380831282138214821582E7E5F6E0CC
:1055D0009183808330EC328328EA23831482AAECFF
:1055E000A583E1E5F6E091838083328323831482EF
:1055F00085E68583E4EEF2E02491AEE3B6E014960E
:105600002C931497E3EEF2E0E4911596EC93159742
:1056100080ED92E0FC013491E32FF0E0EE0FFF1FEC
:10562000E054FD4FC591D4911796DC93CE93169715
:10563000EFECF2E0E491F0E0EE0FFF1FEA54FD4FD3
:10564000C591D4911996DC93CE931897FC0184915F
:10565000E82FF0E0EE0FFF1FE455FD4FC591D49108
:105660001B96DC93CE931A9752961C92529789E41C
:1056700099E51D969C938E931C97E8812E2B288389
:105680001696ED91FC911797908114968C918095C8
:1056900089238083E0E3F6E01382128244835583FA
:1056A0006683778385E591E09183808315861486F0
:1056B000DF91CF910895CF93DF93CDB7DEB7A49755
:1056C0000FB6F894DEBF0FBECDBF789484B582606C
:1056D00084BD84B5816084BD85B5826085BD85B596
:1056E000816085BD80916E00816080936E00109214
:1056F000810080918100826080938100809181008F
:10570000816080938100809180008160809380001F
:105710008091B10084608093B1008091B00081607D
:105720008093B00080917A00846080937A008091A9
:105730007A00826080937A0080917A008160809301
:105740007A0080917A00806880937A001092C1007C
:10575000E0912C05F0912D0582E08083E0912805F1
:10576000F09129051082E0912A05F0912B058FEC2C
:10577000808310923405E0913005F091310586E088
:105780008083E0912E05F0912F05808180618083D8
:10579000E0912E05F0912F05808188608083E09153
:1057A0002E05F0912F05808180688083E0912E0581
:1057B000F0912F0580818F7D808368EE73E080E01B
:1057C00090E00E94190263ED70E08CE195E00E9488
:1057D000EC0E6CEB70E08CE195E00E94EC0E8DE03D
:1057E0000E94A40103E010E061E08DE00E94C3018B
:1057F00068EC70E080E090E00E94190260E08DE0CB
:105800000E94C30168EC70E080E090E00E94190201
:105810000150110949F760EB70E08CE195E00E94BE
:10582000B40227E731E03A832983809159069091A9
:105830005A06A0915B06B0915C068B839C83AD8376
:10584000BE83AE014F5F5F4F2A01CA010E945B0B0E
:105850006CED75E080E090E00E9419026AEA70E069
:105860008CE195E00E94B4023091DB022091DC02D1
:105870009091DD028091DE02E7E7F1E0FA83E983AF
:105880003B832C839D838E83C2010E94A00F61EA1B
:1058900070E08CE195E00E94EC0E81E596E00E94BC
:1058A000A00F61E08DE00E94C30168EE73E080E02C
:1058B00090E00E94190260E08DE00E94C30162E95D
:1058C00070E08CE195E00E94EC0E6DE770E08CE1F9
:1058D00095E00E94EC0E68E670E08CE195E00E9495
:1058E000EC0E6BE2262E312C0E94A8024B015C01CB
:1058F0008091EB029091EC02A091ED02B091EE024A
:10590000A5019401281B390B4A0B5B0BDA01C90175
:1059100081319742A105B10508F09CC38091E7024F
:105920009091E802A091E902B091EA02A5019401E8
:10593000281B390B4A0B5B0BDA01C901883B9B40E2
:10594000A105B10508F04CC28091E1029091E202FC
:10595000A091E302B091E402A5019401281B390B48
:105960004A0B5B0BDA01C90180339547A105B105EC
:1059700008F41BC28092E1029092E202A092E3023C
:10598000B092E4028091E5029091E602892B09F43D
:1059900082C361E08DE00E94C3016CE472E08CE19F
:1059A00095E00E94B4028091E5029091E6020E9487
:1059B000210F64E472E08CE195E00E94EC0E00910E
:1059C000E5021091E60268E072E08CE195E00E9449
:1059D000B40247E751E05A8349838091530690917E
:1059E0005406A0915506B09156068B839C83AD83D7
:1059F000BE8348EB5BE0B20180E396E00E9428257D
:105A0000892B31F56FEF71E08CE195E00E94EC0E8F
:105A100064EF71E080E090E00E94190287E791E076
:105A20009A8389838091530690915406A0915506DC
:105A3000B09156068B839C83AD83BE8348EB5BE0BD
:105A4000B20180E396E00E942825892B09F441C326
:105A50006FEE71E08CE195E00E94EC0E63E871E07E
:105A6000CE014F960E94721066EA71E0CE014F9609
:105A70000E9437101C8A1B8A1E8A1D8A188E1F8A54
:105A80004AE0B201C8010E941431F20101900020E5
:105A9000E9F73197AF0144195509B201CE01439698
:105AA0000E9441104F89588D6B897C89CE014F9699
:105AB0000E940010CE0143960E94CD0F61ED71E06F
:105AC000CE014F960E9437108091DF029091E00244
:105AD0001C8A1B8A1E8A1D8A188E1F8A4AE0B20100
